:02000000F22AE2
:10000800FF00030E8301BD000A08BC008A010C1D15
:1000180017283308AD003408AE00B301B4018E01CF
:100028008F010C100C110C1C1D28B30A0319B40AFB
:100038000C103C088A003D0E8300FF0E7F0E09005D
:0E004800F201F101F001F801F30100300800AF
:100056007B15FB1F35280130F300F201F101F00199
:08006600FA0DF20CFF30080056
:08006E00FA1FF2130030080034
:10007600FB14FB1F4528FF30F300F200F100F000EF
:08008600FA0DF20CFF30080036
:10008E007C187D28FC184E287C199C284728A00136
:10009E007208031D6E287108F2007008F1007808CE
:1000AE00F000F801A0157208031D6E287108F20009
:1000BE007008F100F001A01120167208031D6E28C1
:1000CE007108F200F101A01572080319902820089A
:1000DE00F302031D031C94280310F21B7D28F80D58
:1000EE00F00DF10DF20DF30B742894287B1B701C90
:1000FE009828F81F9828F00A0319F10A0319F20A32
:10010E00031D9828F20CF10CF00CF30A03199C282D
:10011E0098280130FC0024209F280230FC002B2060
:10012E009F280430FC0037209F280830FC003B201D
:04013E0000000800B5
:100142007B14FB1FAC28F201FA1FFF30F200F10012
:0A015200F000FA0DF20CFF30080077
:0E015C008312031336088A003508820008005B
:06016A00FB15FF30080048
:10017000A0017208031DCD287108F2007008F1007B
:10018000F001A0157208031DCD287108F200F101DD
:10019000A011201672080319DB282008F302031DA2
:1001A000031CDF280310F21BE328F00DF10DF20D04
:1001B000F30BD328DF280130FC002420E62802308E
:0E01C000FC002B20E6280430FC00372008004D
:1001CE008030831203133F06F00080307002031D4F
:1001DE00F22800303E020318FD283E08003CF000D5
:1001EE003F08031C013EF101F10201293E08F00017
:0601FE003F08F1000800BB
:10020400831203137008F8007108F000F101F20181
:10021400F301FB01FC019630F300FA017008F100D0
:0C0224007808F000F801F201B820080092
:1002300083120313FA017308031D7A147708031D50
:10024000FA147A0803196429033A03192F297A1832
:100250002C29F61F62296029F21F60296229720881
:100260008039FA00F21376088039F6137A060319FA
:100270003D297A0803196029622977087302031956
:100280004429031C58295C297608720203194B295A
:10029000031C58295C297508710203195229031C93
:1002A00058295C29740870020319642903185C2911
:1002B000FA08031962296029FA08031960296229DA
:1002C00003140800031008000314031508000800B5
:1002D00083120313FB01FC01FA0173080319A72918
:1002E000F2178E30F302F31B782903197829AA2913
:1002F000F309F30A08307302031C8D29F300F10D92
:100300007208F100F20108307302031C8D29F10D0F
:10031000F1017308031D031095297308031995292A
:100320000310F20CF10CF30B90297B1B711C9F291D
:10033000031C9F29F10A0319F20AF21BB629FA1FBE
:10034000B929F209F109F10A0319F20AB929F201EE
:10035000F101B9297B14FB1FBC29F201FA1FBC294A
:10036000FF30F200F100FA0DF20CBC290130FC0064
:10037000BE290030FC00BE29FF30FC00FC08031938
:0E038000C229A1207108F0007208F1000800E7
:10038E0083120313F801F9011030FC00710DF80D02
:10039E00F90D7408F8027508031C750FF90203189D
:1003AE00DF297408F80775080318750FF90703108D
:0A03BE00F00DF10DFC0BCD29080035
:1003C800831203137008F8007108F0007208F10036
:1003D8007308F200F301FB01FC019E30F300FA01FF
:0803E8000230FC004720080070
:1003F000831203137408003A031D132A7508003A88
:10040000031D132A7608003A031D132A7708003AC1
:10041000031D132AFF30F000FF30F1007F30F2009F
:10042000FF30F300AE2A8312031377080319A22AC0
:1004300073080319A52A720876068039FA00F217A4
:10044000F617A0017208F8007108FC007008FD00A2
:100450007408FD027508031C750FFC027608031C66
:10046000760FF802F801FC01FD01031C3E2A03107F
:10047000F20CF10CF00CF80C0130A0007708F3023C
:10048000031C482A7E302007F3070318A82A4D2AA8
:100490007E302007F307031CAB2A1830FA07FD0D46
:1004A000FC0DF80DF00DF10DF20DA00D7408F00229
:1004B0007508031C750FF1027608031C760FF20213
:1004C000760DA004201C662A7D14712A7408F0079A
:1004D00075080318750FF10776080318760AF207F6
:1004E0007D10FA031F307A05031D4F2A7B1B7D1CEC
:1004F000982A0310F00DF10DF20DA00D7408F00212
:100500007508031C750FF1027608031C760FF202C2
:10051000760D20040139FD070318FC0A0319F80AB7
:10052000031D982AF80CFC0CFD0CF30A0319A82AE9
:10053000FA1FF8137808F2007C08F1007D08F0003B
:100540000030AD2A0130B520AD2A02302420AD2A7A
:0E05500004303B20AD2A08302B2000000800AC
:10055E00831203132230FC00F801F901FA01FB01AA
:10056E00FC030319E52A0310FB0CFA0CF90CF80C2A
:10057E00F30CF20CF10CF00C031CB72AFC0303195C
:10058E00D72A7408F80775080318750FF907760847
:10059E000318760FFA0777080318770FFB07BB2AA5
:1005AE007408F80775080318750FF907760803180D
:0E05BE00760FFA0777080318770FFB0708007F
:1005CC00AE208A110A128000840AB50A0319B60AF1
:0805DC00F003031DE62A0800EC
:1005E4003F3083120313A1000630A2005B30A30046
:1005F4004F30A4006630A5006D30A6007D30A70002
:100604000730A8007F30A9006F30AA00AB01AC010D
:10061400AD01AE01AF01B001B101B201B301B4014A
:1006240083160F16031788018901031385018312AA
:10063400850183168601831286010630970083168E
:10064400071583120C1183160C15831290101015C4
:100654009012101683160C1483120C100B1710141E
:100664008E018F018B172D08F0002E08F100F20186
:10067400F301FF30F400FF30F5000030F6000030E5
:10068400F700AF221508F4001608F500F601F7018B
:100694007008F40771080318710FF507720803183E
:1006A400720FF60773080318730FF7077408F00046
:1006B4007508F1007608F2007708F300E421700869
:1006C400F4007108F5007208F6007308F700C030F2
:1006D400F000E130F1006430F2009830F300F821CA
:1006E40068217008AF007108B00031087002BE00C4
:1006F4003208031C013E7102BF00E7207008AB0002
:100704007108AC002F08F0003008F100022100301D
:10071400F400C030F5005A30F6008B30F700182191
:10072400013003180030F00070080319E92B003081
:100734002C02031D9F2B03302B02031CE92B2F08D3
:10074400F0003008F10002217008F4007108F5008F
:100754007208F6007308F7000030F0002030F10052
:100764003230F2008B30F30018210130031C0030CA
:10077400F0007008031DE52B2F08F0003008F1008D
:1007840002217008F4007108F5007208F60073087D
:10079400F7000030F0002030F1003230F2008B30EE
:1007A400F3001821013003180030F0007008031919
:1007B400E42B00302C02031DE12BAF302B02031875
:1007C400E42BE52BE92B2F08B1003008B2003408E4
:1007D400003C031DEF2B3308073C0318F72BB10132
:1007E400B2010830B3000030B400E830F400033044
:1007F400F5003108F0003208F100C7217008B80094
:100804006430F4000030F5003108F0003208F100E3
:10081400C7210A30F4000030F500C7217808F00041
:100824007908F1007008B9000A30F4000030F500CE
:100834003108F0003208F100C7210A30F40000301A
:10084400F500C7217808F0007908F1007008BA00B3
:100854000A30F4000030F5003108F0003208F100ED
:10086400C7217808F0007908F1007008BB00013056
:100874008600B7010430370203185D2C3708383E70
:1008840084000008F0007008213E84000008850000
:100894000830FC00C930FD00FD0B4E2CFC0B4E2C27
:1008A4000000000085010608F000F00D70107008CB
:0A08B4008600B70A3C2C352B5E2CA1
:04400E00F42F000784
:00000001FF
