:02000000322AA2
:10000600FB14FB1F0D28FF30F300F200F100F00097
:08001600FA0DF20CFF300800A6
:08001E00FA1FF2130030080084
:100026007B15FB1F1D280130F300F201F101F001E1
:08003600FA0DF20CFF30080086
:0E003E00F201F101F001F801F30100300800B9
:10004C007B14FB1F3128F201FA1FFF30F200F10084
:0A005C00F000FA0DF20CFF3008006E
:100066007C186928FC183A287C1988283328A001AE
:100076007208031D5A287108F2007008F10078080A
:10008600F000F801A0157208031D5A287108F20045
:100096007008F100F001A01120167208031D5A28FD
:1000A6007108F200F101A015720803197C282008D6
:1000B600F302031D031C80280310F21B6928F80DA8
:1000C600F00DF10DF20DF30B602880287B1B701CE0
:1000D6008428F81F8428F00A0319F10A0319F20A82
:1000E600031D8428F20CF10CF00CF30A031988287E
:1000F60084280130FC001F208B280230FC001320CE
:100106008B280430FC000F208B280830FC000320CD
:0401160000000800DD
:10011A00A0017208031DA2287108F2007008F100FC
:10012A00F001A0157208031DA2287108F200F1015E
:10013A00A011201672080319B0282008F302031D23
:10014A00031CB4280310F21BB828F00DF10DF20DB0
:10015A00F30BA828B4280130FC001F20BB2802306A
:0E016A00FC001320BB280430FC000F2008000E
:1001780083120313FB01FA01F9018030F800F10C36
:10018800F00C031CD0287408F90775080318750FBC
:10019800FA070318FB0A0310F01FD8287408FA0797
:1001A80075080318750FFB07FB0CFA0CF90CF80C13
:1001B800031CC3287B08F3007A08F2007908F100D1
:0601C8007808F0000800B9
:0C01CE0007308312FD00FD0BEA2808003A
:1001DA0083120313FB017308031D770803194429CB
:1001EA0072087606FA007708F3077E30031C0129A5
:1001FA00F302031847290429F302031C4A29720847
:10020A00F8007108FC007008FD00F817F6170310D3
:10021A00F201F101F0011830A0007D1C1E297408BA
:10022A00F00775080318750FF10776080318760F9B
:10023A00F207F20CF10CF00CF80CFC0CFD0C03109C
:10024A00A00B1229F21B2E29F80DF00DF10DF20D5B
:10025A00F3037B1B701C4029F81F4029F00A03197D
:10026A00F10A0319F20A031D4029F20CF10CF00CF1
:10027A00F30A03194729FA1FF21300304C290130F7
:10028A001F204C29023003204C290430132000007F
:02029A0008005A
:10029C00831203137008F800FB01FC019E30F3007D
:1002AC00FA01F201F101F0010230FC0033200800E8
:1002BC00C33083129F05F0309F05F03083169F04E6
:1002CC0083129F172D08F000F00D7010F00D7010B8
:1002DC0070089F041F14E7209F149F1C77290000AF
:1002EC0073291F101E08F100F00183161E08F0047C
:0602FC000030F1040800CF
:1003020083120313FB01FC01FA0173080319AE29DE
:10031200FA13F2178630F302F31B9229031992297A
:10032200B029F309F30A08307302031C9F29F30072
:10033200F20DF2017308031D0310A62973080319B5
:10034200A6290310F20CF30BA2297B1B721CAE2907
:10035200031CAE29F20A0319B529F101B8297B144D
:10036200FB1FBB29F101BB290130FC00BD29003074
:10037200FC00BD29FF30FC00FC080319C12926201E
:060382007208F000080003
:0A038800831293011512951208006C
:0E03920083160511831212150C309504080015
:1003A000831203137008F8007108F000F101F201E4
:1003B000F301FB01FC019630F300FA017008F10033
:0C03C0007808F000F801F2018D20080020
:1003CC00FF308312A300FF30A400FF30A500FF30E4
:1003DC00C3309F05F0309F05F03083169F048312C5
:0603EC009F171F1408001A
:1003F20083161208013EF000F1010318F10A83127C
:100402002D08F400F501BC200630F2007008F4005B
:100412007108F50072080319132AF50CF40CF51390
:10042200FF3E0C2A0430F1007408F0007108031931
:100432001E2AF00D7010FF3E182A30307005F300AE
:100442007408F0007508F100F10CF00CF113F10CD6
:10045200F00CF113700893000F30950573089504A2
:02046200080090
:10046400073083129900013083169F000130850004
:10047400013083128500E62112109210C7308316D2
:100484009200C421AD01F921C921AD015E2170089A
:100494008312A8007108A90000307102031D542AB8
:1004A400203070020318582AAC01762A2908033C2C
:1004B400031D5E2A2808DF3C0318632AFF30AB00C3
:1004C400742A2808F0002908F100D021D030F40063
:1004D4003F30F5007F30F6007C30F700ED208121BD
:1004E4007008AB002B08AC002C08AA002C08AD0047
:1004F400F9212A08F0004E218130F4008030F50003
:100504000030F6007A30F700ED2081217008A10058
:100514008512A2010830220203189F2A851021089F
:100524002202013003180030F00070189B2A0512D3
:100534009C2A05168514A20A8C2A8516472AA12A04
:02400E00D40FCD
:00000001FF
